{
  "contractName": "DeconetPaymentsSplittingFactory",
  "abi": [
    {
      "constant": false,
      "inputs": [],
      "name": "renounceOwnership",
      "outputs": [],
      "payable": false,
      "stateMutability": "nonpayable",
      "type": "function"
    },
    {
      "constant": true,
      "inputs": [],
      "name": "owner",
      "outputs": [
        {
          "name": "",
          "type": "address"
        }
      ],
      "payable": false,
      "stateMutability": "view",
      "type": "function"
    },
    {
      "constant": true,
      "inputs": [],
      "name": "libraryAddress",
      "outputs": [
        {
          "name": "",
          "type": "address"
        }
      ],
      "payable": false,
      "stateMutability": "view",
      "type": "function"
    },
    {
      "constant": false,
      "inputs": [
        {
          "name": "_newOwner",
          "type": "address"
        }
      ],
      "name": "transferOwnership",
      "outputs": [],
      "payable": false,
      "stateMutability": "nonpayable",
      "type": "function"
    },
    {
      "inputs": [
        {
          "name": "_libraryAddress",
          "type": "address"
        }
      ],
      "payable": false,
      "stateMutability": "nonpayable",
      "type": "constructor"
    },
    {
      "anonymous": false,
      "inputs": [
        {
          "indexed": false,
          "name": "newCloneAddress",
          "type": "address"
        }
      ],
      "name": "PaymentsSplittingCreated",
      "type": "event"
    },
    {
      "anonymous": false,
      "inputs": [
        {
          "indexed": true,
          "name": "target",
          "type": "address"
        },
        {
          "indexed": false,
          "name": "clone",
          "type": "address"
        }
      ],
      "name": "CloneCreated",
      "type": "event"
    },
    {
      "anonymous": false,
      "inputs": [
        {
          "indexed": true,
          "name": "previousOwner",
          "type": "address"
        }
      ],
      "name": "OwnershipRenounced",
      "type": "event"
    },
    {
      "anonymous": false,
      "inputs": [
        {
          "indexed": true,
          "name": "previousOwner",
          "type": "address"
        },
        {
          "indexed": true,
          "name": "newOwner",
          "type": "address"
        }
      ],
      "name": "OwnershipTransferred",
      "type": "event"
    },
    {
      "constant": false,
      "inputs": [
        {
          "name": "_libraryAddress",
          "type": "address"
        }
      ],
      "name": "setLibraryAddress",
      "outputs": [],
      "payable": false,
      "stateMutability": "nonpayable",
      "type": "function"
    },
    {
      "constant": false,
      "inputs": [
        {
          "name": "_destinations",
          "type": "address[]"
        },
        {
          "name": "_sharesMantissa",
          "type": "uint256[]"
        },
        {
          "name": "_sharesExponent",
          "type": "uint256"
        }
      ],
      "name": "createPaymentsSplitting",
      "outputs": [
        {
          "name": "",
          "type": "address"
        }
      ],
      "payable": false,
      "stateMutability": "nonpayable",
      "type": "function"
    }
  ],
  "bytecode": "0x608060405234801561001057600080fd5b506040516020806105a2833981016040525160008054600160a060020a0319908116331790915560018054600160a060020a03909316929091169190911790556105438061005f6000396000f3006080604052600436106100775763ffffffff7c01000000000000000000000000000000000000000000000000000000006000350416634863ba17811461007c578063715018a61461009f5780638da5cb5b146100b4578063b324816a146100e5578063b816f51314610114578063f2fde38b14610129575b600080fd5b34801561008857600080fd5b5061009d600160a060020a036004351661014a565b005b3480156100ab57600080fd5b5061009d6101c0565b3480156100c057600080fd5b506100c961022c565b60408051600160a060020a039092168252519081900360200190f35b3480156100f157600080fd5b506100c9602460048035828101929082013591813591820191013560443561023b565b34801561012057600080fd5b506100c9610360565b34801561013557600080fd5b5061009d600160a060020a036004351661036f565b600054600160a060020a0316331461016157600080fd5b600154600160a060020a038281169116141561017c57600080fd5b600160a060020a038116151561019157600080fd5b6001805473ffffffffffffffffffffffffffffffffffffffff1916600160a060020a0392909216919091179055565b600054600160a060020a031633146101d757600080fd5b60008054604051600160a060020a03909116917ff8df31144d9c2f0f6b59d69b8b98abd5459d07f2742c4df920b25aae33c6482091a26000805473ffffffffffffffffffffffffffffffffffffffff19169055565b600054600160a060020a031681565b600154600090819061025590600160a060020a0316610392565b905080600160a060020a031663e8211eeb88888888886040518663ffffffff167c0100000000000000000000000000000000000000000000000000000000028152600401808060200180602001848152602001838103835288888281815260200192506020028082843790910184810383528681526020908101915087908702808284378201915050975050505050505050600060405180830381600087803b15801561030157600080fd5b505af1158015610315573d6000803e3d6000fd5b505060408051600160a060020a038516815290517f5cbb16c37e699341e78c777ebf08af28de2b4dc91fccf65f6ba0f749fbcdb3f99350908190036020019150a19695505050505050565b600154600160a060020a031681565b600054600160a060020a0316331461038657600080fd5b61038f8161049a565b50565b60408051606081018252603781527f3d602d80600a3d3981f3363d3d373d3d3d363d73bebebebebebebebebebebebe60208201527fbebebebebebebebe5af43d82803e903d91602b57fd5bf3000000000000000000918101919091526000906c010000000000000000000000008302825b60148110156104845781816014811061041857fe5b1a7f010000000000000000000000000000000000000000000000000000000000000002838260140181518110151561044c57fe5b9060200101907effffffffffffffffffffffffffffffffffffffffffffffffffffffffffffff1916908160001a905350600101610403565b82516020840181816000f0979650505050505050565b600160a060020a03811615156104af57600080fd5b60008054604051600160a060020a03808516939216917f8be0079c531659141344cd1fd0a4f28419497f9722a3daafe3b4186f6b6457e091a36000805473ffffffffffffffffffffffffffffffffffffffff1916600160a060020a03929092169190911790555600a165627a7a723058209c93b76a521aef325e18e14376a38c7668871cb41db3ca049aa8f7a9a97aab740029",
  "source": "pragma solidity 0.4.24;\n\nimport \"./DeconetPaymentsSplitting.sol\";\nimport \"openzeppelin-solidity/contracts/ownership/Ownable.sol\";\nimport \"@optionality.io/clone-factory/contracts/CloneFactory.sol\";\n\n/**\n * @title Clone factory contract for DeconetPaymentsSplitting contract.\n *\n * @dev Contract provide convenient way of deploying clones of DeconetPaymentsSplitting contract.\n */\ncontract DeconetPaymentsSplittingFactory is Ownable, CloneFactory {\n\n    // PaymentsSplitting master-contract address.\n    address public libraryAddress;\n\n    // Logged when a new PaymentsSplitting clone is deployed to the chain.\n    event PaymentsSplittingCreated(address newCloneAddress);\n\n    /**\n     * @dev Constructor for the contract.\n     * @param _libraryAddress PaymentsSplitting master-contract address.\n     */\n    constructor(address _libraryAddress) public {\n        libraryAddress = _libraryAddress;\n    }\n\n    /**\n     * @dev Updates library address with the given value.\n     * @param _libraryAddress Address of a new base contract.\n     */\n    function setLibraryAddress(address _libraryAddress) external onlyOwner {\n        require(libraryAddress != _libraryAddress);\n        require(_libraryAddress != address(0x0));\n\n        libraryAddress = _libraryAddress;\n    }\n\n    /**\n     * @dev Create PaymentsSplitting clone.\n     * @param _destinations Destination addresses of the new PaymentsSplitting contract clone.\n     * @param _sharesMantissa Mantissa values for destinations shares ordered respectively with `_destinations`.\n     * @param _sharesExponent Exponent of a power term that forms shares floating-point numbers, expected to\n     * be the same for all values in `_sharesMantissa`.\n     */\n    function createPaymentsSplitting(\n        address[] _destinations,\n        uint[] _sharesMantissa,\n        uint _sharesExponent\n    )\n        external\n        returns(address)\n    {\n        address clone = createClone(libraryAddress);\n        DeconetPaymentsSplitting(clone).setUpDistribution(_destinations, _sharesMantissa, _sharesExponent);\n        emit PaymentsSplittingCreated(clone);\n        return clone;\n    }\n}",
  "sourcePath": "/Users/chris/Documents/WorkStuff/Deconet/EthSanFranciscoHackathon2018/contracts/DeconetPaymentsSplittingFactory.sol",
  "compiler": {
    "name": "solc",
    "version": "0.4.24+commit.e67f0147.Emscripten.clang"
  },
  "schemaVersion": "2.0.1",
  "updatedAt": "2018-10-06T11:17:08.412Z"
}