{
  "contractName": "DeconetPaymentsSplitting",
  "abi": [
    {
      "constant": true,
      "inputs": [
        {
          "name": "",
          "type": "uint256"
        }
      ],
      "name": "distributions",
      "outputs": [
        {
          "name": "destination",
          "type": "address"
        },
        {
          "name": "mantissa",
          "type": "uint256"
        }
      ],
      "payable": false,
      "stateMutability": "view",
      "type": "function"
    },
    {
      "constant": true,
      "inputs": [],
      "name": "sharesExponent",
      "outputs": [
        {
          "name": "",
          "type": "uint256"
        }
      ],
      "payable": false,
      "stateMutability": "view",
      "type": "function"
    },
    {
      "payable": true,
      "stateMutability": "payable",
      "type": "fallback"
    },
    {
      "anonymous": false,
      "inputs": [
        {
          "indexed": false,
          "name": "destinations",
          "type": "address[]"
        },
        {
          "indexed": false,
          "name": "sharesMantissa",
          "type": "uint256[]"
        },
        {
          "indexed": false,
          "name": "sharesExponent",
          "type": "uint256"
        }
      ],
      "name": "DistributionCreated",
      "type": "event"
    },
    {
      "anonymous": false,
      "inputs": [
        {
          "indexed": true,
          "name": "senderOrAddressee",
          "type": "address"
        },
        {
          "indexed": false,
          "name": "amount",
          "type": "uint256"
        },
        {
          "indexed": true,
          "name": "operationType",
          "type": "uint8"
        }
      ],
      "name": "FundsOperation",
      "type": "event"
    },
    {
      "constant": false,
      "inputs": [
        {
          "name": "_destinations",
          "type": "address[]"
        },
        {
          "name": "_sharesMantissa",
          "type": "uint256[]"
        },
        {
          "name": "_sharesExponent",
          "type": "uint256"
        }
      ],
      "name": "setUpDistribution",
      "outputs": [],
      "payable": false,
      "stateMutability": "nonpayable",
      "type": "function"
    },
    {
      "constant": false,
      "inputs": [],
      "name": "withdrawFullContractBalance",
      "outputs": [],
      "payable": false,
      "stateMutability": "nonpayable",
      "type": "function"
    },
    {
      "constant": true,
      "inputs": [
        {
          "name": "_fullAmount",
          "type": "uint256"
        },
        {
          "name": "_shareMantissa",
          "type": "uint256"
        },
        {
          "name": "_shareExponent",
          "type": "uint256"
        }
      ],
      "name": "calculatePayout",
      "outputs": [
        {
          "name": "",
          "type": "uint256"
        }
      ],
      "payable": false,
      "stateMutability": "pure",
      "type": "function"
    }
  ],
  "bytecode": "0x608060405234801561001057600080fd5b506104e5806100206000396000f30060806040526004361061006c5763ffffffff7c01000000000000000000000000000000000000000000000000000000006000350416630caee2ca81146100c55780634487d3df146100f55780636fdcaadf14610130578063b240ca6f14610145578063e8211eeb1461015a575b600060408051348152905133917fc5246a0664eafae13ded673b5437405295f6664552f42784245dc5c221f44284919081900360200190a3600154612aee026105e8015a10156100bb576100c3565b6100c3610189565b005b3480156100d157600080fd5b506100e36004356024356044356102ab565b60408051918252519081900360200190f35b34801561010157600080fd5b5061010d6004356102c9565b60408051600160a060020a03909316835260208301919091528051918290030190f35b34801561013c57600080fd5b506100c3610189565b34801561015157600080fd5b506100e36102ff565b34801561016657600080fd5b506100c36024600480358281019290820135918135918201910135604435610305565b6000806000806101976104a2565b60015494506000612aee86025a10156101af576102a3565b60005430319550935060028401600a0a8510156101cb57600080fd5b600092505b858310156102a35760018054849081106101e657fe5b6000918252602091829020604080518082019091526002909202018054600160a060020a03168252600101549181018290529250610226908690866102ab565b8251604051919250600160a060020a03169082156108fc029083906000818181858888f19350505050156102985760018251604080518481529051600160a060020a03909216917fc5246a0664eafae13ded673b5437405295f6664552f42784245dc5c221f442849181900360200190a35b6001909201916101d0565b505050505050565b60008282600201600a0a858115156102bf57fe5b0402949350505050565b60018054829081106102d757fe5b600091825260209091206002909102018054600190910154600160a060020a03909116915082565b60005481565b60015460009081901561031757600080fd5b600586118015906103285750600086115b151561033357600080fd5b5060009050805b858110156104025784848281811061034e57fe5b905060200201358201915060016040805190810160405280898985818110151561037457fe5b90506020020135600160a060020a0316600160a060020a0316815260200187878581811015156103a057fe5b602090810292909201359092528354600180820186556000958652948290208451600290920201805473ffffffffffffffffffffffffffffffffffffffff1916600160a060020a0390921691909117815592015191830191909155500161033a565b60028301600a0a821461041457600080fd5b826000819055507f4607ddff8d42f0eca15ad51c38fc71d7c19e7e7f07923731ee8617c54d5bdf488787878787604051808060200180602001848152602001838103835288888281815260200192506020028082843790910184810383528681526020908101915087908702808284376040519201829003995090975050505050505050a150505050505050565b6040805180820190915260008082526020820152905600a165627a7a72305820e63685b4f8821ecf7181c1cdfe917750c319bf63a2b90b5d44e478514478b9ba0029",
  "source": "pragma solidity 0.4.24;\n\n\n/**\n * @title Payments Splitting contract.\n *\n * @dev Contract for companies or groups of people who wants to accept Ethereum donations or payments and\n * distribution funds by preconfigured rules.\n */\ncontract DeconetPaymentsSplitting {\n\n    // Logged on this distribution set up completion.\n    event DistributionCreated (\n        address[] destinations,\n        uint[] sharesMantissa,\n        uint sharesExponent\n    );\n\n    // Logged when funds landed to or been sent out from this contract balance.\n    event FundsOperation (\n        address indexed senderOrAddressee,\n        uint amount,\n        FundsOperationType indexed operationType\n    );\n\n    // Enumeration of possible funds operations.\n    enum FundsOperationType { Incoming, Outgoing }\n\n    // Describes Distribution destination and its share of all incoming funds.\n    struct Distribution {\n        // Destination address of the distribution.\n        address destination;\n\n        // Floating-point number mantissa of a share allotted for a destination address.\n        uint mantissa;\n    }\n\n    // Stores exponent of a power term of a floating-point number.\n    uint public sharesExponent;\n\n    // Stores list of distributions.\n    Distribution[] public distributions;\n\n    /**\n     * @dev Payable fallback that tries to send over incoming funds to the distribution destinations splitted\n     * by pre-configured shares. In case when there is not enough gas sent for the transaction to complete\n     * distribution, all funds will be kept in contract untill somebody calls `withdrawFullContractBalance` to\n     * run postponed distribution and withdraw contract's balance funds.\n     */\n    function () public payable {\n        emit FundsOperation(msg.sender, msg.value, FundsOperationType.Incoming);\n        // Distribution happens in a for loop and every iteration requires fixed 10990 of gas to perform\n        // distribution. Also, 1512 of gas is required to call `withdrawFullContractBalance` method and do\n        // some checks and preps in it.\n        if (gasleft() < (10990 * distributions.length + 1512)) return;\n        withdrawFullContractBalance();\n    }\n\n    /**\n     * @dev Set up distribution for the current clone, can be called only once.\n     * @param _destinations Destination addresses of the current payments splitting contract clone.\n     * @param _sharesMantissa Mantissa values for destinations shares ordered respectively with `_destinations`.\n     * @param _sharesExponent Exponent of a power term that forms shares floating-point numbers, expected to\n     * be the same for all values in `_sharesMantissa`.\n     */\n    function setUpDistribution(\n        address[] _destinations,\n        uint[] _sharesMantissa,\n        uint _sharesExponent\n    )\n        external\n    {\n        require(distributions.length == 0); // Make sure the clone isn't initialized yet.\n        require(_destinations.length <= 5 && _destinations.length > 0);\n        uint sum = 0;\n        for (uint i = 0; i < _destinations.length; i++) {\n            sum += _sharesMantissa[i];\n            distributions.push(Distribution(_destinations[i], _sharesMantissa[i]));\n        }\n        require(sum == 10**(_sharesExponent + 2)); // taking into account 100% by adding 2 to the exponenta.\n        sharesExponent = _sharesExponent;\n        emit DistributionCreated(_destinations, _sharesMantissa, _sharesExponent);\n    }\n\n    /**\n     * @dev Process the available balance through the distribution and send money over to destination address.\n     */\n    function withdrawFullContractBalance() public {\n        uint distributionsCount = distributions.length;\n        if (gasleft() < 10990 * distributionsCount) return;\n        uint balance = address(this).balance;\n        uint exponent = sharesExponent;\n        require(balance >= 10**(exponent + 2));\n        for (uint i = 0; i < distributionsCount; i++) {\n            Distribution memory distribution = distributions[i];\n            uint amount = calculatePayout(balance, distribution.mantissa, exponent);\n            if(distribution.destination.send(amount)) {\n                emit FundsOperation(distribution.destination, amount, FundsOperationType.Outgoing);\n            }\n        }\n    }\n\n\n    /**\n     * @dev Calculates a share of the full amount.\n     * @param _fullAmount Full amount.\n     * @param _shareMantissa Mantissa of the percentage floating-point number.\n     * @param _shareExponent Exponent of the percentage floating-point number.\n     * @return An uint of the payout.\n     */\n    function calculatePayout(uint _fullAmount, uint _shareMantissa, uint _shareExponent) public pure returns(uint) {\n        return (_fullAmount / (10 ** (_shareExponent + 2))) * _shareMantissa;\n    }\n}\n",
  "sourcePath": "/Users/chris/Documents/WorkStuff/Deconet/EthSanFranciscoHackathon2018/contracts/DeconetPaymentsSplitting.sol",
  "compiler": {
    "name": "solc",
    "version": "0.4.24+commit.e67f0147.Emscripten.clang"
  },
  "schemaVersion": "2.0.1",
  "updatedAt": "2018-10-06T11:17:08.417Z"
}