{
  "contractName": "SplitterConverter",
  "abi": [
    {
      "inputs": [
        {
          "name": "addresses",
          "type": "address[]"
        },
        {
          "name": "shares",
          "type": "uint8[]"
        },
        {
          "name": "outCurrencies",
          "type": "address[]"
        }
      ],
      "payable": false,
      "stateMutability": "nonpayable",
      "type": "constructor"
    },
    {
      "payable": true,
      "stateMutability": "payable",
      "type": "fallback"
    },
    {
      "anonymous": false,
      "inputs": [
        {
          "indexed": false,
          "name": "amount",
          "type": "uint256"
        }
      ],
      "name": "FundsReceived",
      "type": "event"
    },
    {
      "anonymous": false,
      "inputs": [
        {
          "indexed": false,
          "name": "receiverIndex",
          "type": "uint256"
        },
        {
          "indexed": false,
          "name": "receiverAddress",
          "type": "address"
        },
        {
          "indexed": false,
          "name": "amount",
          "type": "uint256"
        }
      ],
      "name": "FundsSent",
      "type": "event"
    },
    {
      "anonymous": false,
      "inputs": [
        {
          "indexed": false,
          "name": "id",
          "type": "bytes32"
        },
        {
          "indexed": false,
          "name": "url",
          "type": "string"
        }
      ],
      "name": "OrcalizeQueried",
      "type": "event"
    },
    {
      "anonymous": false,
      "inputs": [
        {
          "indexed": false,
          "name": "id",
          "type": "bytes32"
        },
        {
          "indexed": false,
          "name": "result",
          "type": "string"
        }
      ],
      "name": "OrcalizeResult",
      "type": "event"
    },
    {
      "constant": true,
      "inputs": [],
      "name": "getReceiversLength",
      "outputs": [
        {
          "name": "",
          "type": "uint256"
        }
      ],
      "payable": false,
      "stateMutability": "view",
      "type": "function"
    },
    {
      "constant": true,
      "inputs": [
        {
          "name": "idx",
          "type": "uint256"
        }
      ],
      "name": "getReceiver",
      "outputs": [
        {
          "name": "outAddress",
          "type": "address"
        },
        {
          "name": "share",
          "type": "uint8"
        },
        {
          "name": "outCurrency",
          "type": "address"
        }
      ],
      "payable": false,
      "stateMutability": "view",
      "type": "function"
    },
    {
      "constant": false,
      "inputs": [],
      "name": "withdraw",
      "outputs": [],
      "payable": false,
      "stateMutability": "nonpayable",
      "type": "function"
    }
  ],
  "bytecode": "0x608060405260018054600160a060020a031990811673818e6fecd516ecc3849daf6845e3ec868087b755179091556002805490911673ad6d458402f60fd3bd25163575031acdce07538d17905534801561005857600080fd5b50604051611078380380611078833981016040908152815160208301519183015160008054928501949384019391909101918190156100f857604080517f08c379a000000000000000000000000000000000000000000000000000000000815260206004820181905260248201527f436f6e74726163742063616e206f6e6c7920626520736574207570206f6e6365604482015290519081900360640190fd5b8351855114801561010a575082518451145b151561017757604080517f08c379a000000000000000000000000000000000000000000000000000000000815260206004820152601060248201527f42616420696e70757420706172616d7300000000000000000000000000000000604482015290519081900360640190fd5b5060009050805b84518110156102b357600060606040519081016040528087848151811015156101a357fe5b90602001906020020151600160a060020a0316815260200186848151811015156101c957fe5b9060200190602002015160ff16815260200185848151811015156101e957fe5b6020908102909101810151600160a060020a03908116909252835460018181018655600095865294829020845160029092020180549285015160ff16740100000000000000000000000000000000000000000260a060020a60ff0219928516600160a060020a03199485161792909216919091178155604090930151929093018054929091169190921617905583516102a99085908390811061028857fe5b60209081029091010151839060ff16640100000000610cba61035182021704565b915060010161017e565b6064821461034757604080517f08c379a0000000000000000000000000000000000000000000000000000000008152602060048201526024808201527f5468652073756d206f662075736572207368617265732073686f756c6420626560448201527f2031303000000000000000000000000000000000000000000000000000000000606482015290519081900360840190fd5b505050505061036a565b60008282018381101561036357600080fd5b9392505050565b610cff806103796000396000f3006080604052600436106100565763ffffffff7c01000000000000000000000000000000000000000000000000000000006000350416630442ad71811461008b5780633ccfd60b146100b2578063f4d76499146100c9575b6040805134815290517fbcdc7071c1beb6dcf2744621e0b29a2f2432ee20812d9ca5e3d5e8f9308d93a39181900360200190a1005b34801561009757600080fd5b506100a061010e565b60408051918252519081900360200190f35b3480156100be57600080fd5b506100c7610114565b005b3480156100d557600080fd5b506100e1600435610457565b60408051600160a060020a03948516815260ff909316602084015292168183015290519081900360600190f35b60005490565b6000806000610121610c9a565b600254604080517f70a0823100000000000000000000000000000000000000000000000000000000815230600482018190529151913196506000928392600160a060020a03909116916370a0823191602480830192602092919082900301818787803b15801561019057600080fd5b505af11580156101a4573d6000803e3d6000fd5b505050506040513d60208110156101ba57600080fd5b50519450851580156101ca575084155b156101d45761044f565b600093505b60005484101561044f5760008054859081106101f157fe5b600091825260209182902060408051606080820183526002949094029092018054600160a060020a038082168086527401000000000000000000000000000000000000000090920460ff16858801819052600190930154168484015282518a8152958601526064808c04820286840181905292519398509196509089040293507f545fa8e09b7aa32e41eb2a2ece3cdfb1e14707a7bc79c78e749c79ea6b544aee9281900390910190a16040830151600160a060020a031673eeeeeeeeeeeeeeeeeeeeeeeeeeeeeeeeeeeeeeee141561032a578115610305578251604051600160a060020a039091169083156108fc029084906000818181858888f19350505050158015610303573d6000803e3d6000fd5b505b801561032557600254835161032591600160a060020a03169083906104de565b610444565b6002546040840151600160a060020a039081169116141561040657811561035e5761035e828460400151856000015161078a565b8015610325576002548351604080517fa9059cbb000000000000000000000000000000000000000000000000000000008152600160a060020a039283166004820152602481018590529051919092169163a9059cbb9160448083019260209291908290030181600087803b1580156103d557600080fd5b505af11580156103e9573d6000803e3d6000fd5b505050506040513d60208110156103ff57600080fd5b5050610444565b811561041f5761041f828460400151856000015161078a565b8015610444576002546040840151845161044492600160a060020a031691849161098b565b6001909301926101d9565b505050505050565b6000806000610464610c9a565b600080548690811061047257fe5b6000918252602091829020604080516060810182526002939093029091018054600160a060020a038082168086527401000000000000000000000000000000000000000090920460ff169585018690526001909201549091169290910182905297919650945092505050565b600154604080517f809a9e55000000000000000000000000000000000000000000000000000000008152600160a060020a03868116600483015273eeeeeeeeeeeeeeeeeeeeeeeeeeeeeeeeeeeeeeee6024830152604482018690528251600094859492169263809a9e5592606480830193919282900301818787803b15801561056657600080fd5b505af115801561057a573d6000803e3d6000fd5b505050506040513d604081101561059057600080fd5b506020908101516001546040805160e060020a63095ea7b3028152600160a060020a03928316600482015260006024820181905291519396509189169363095ea7b393604480850194929391928390030190829087803b1580156105f357600080fd5b505af1158015610607573d6000803e3d6000fd5b505050506040513d602081101561061d57600080fd5b5051151561062a57600080fd5b6001546040805160e060020a63095ea7b3028152600160a060020a0392831660048201526024810187905290519187169163095ea7b3916044808201926020929091908290030181600087803b15801561068357600080fd5b505af1158015610697573d6000803e3d6000fd5b505050506040513d60208110156106ad57600080fd5b5050600154604080517f3bba21dc000000000000000000000000000000000000000000000000000000008152600160a060020a038881166004830152602482018890526044820186905291519190921691633bba21dc9160648083019260209291908290030181600087803b15801561072557600080fd5b505af1158015610739573d6000803e3d6000fd5b505050506040513d602081101561074f57600080fd5b5051604051909150600160a060020a0384169082156108fc029083906000818181858888f1935050505015801561044f573d6000803e3d6000fd5b600154604080517f809a9e5500000000000000000000000000000000000000000000000000000000815273eeeeeeeeeeeeeeeeeeeeeeeeeeeeeeeeeeeeeeee6004820152600160a060020a038581166024830152604482018790528251600094859492169263809a9e5592606480830193919282900301818787803b15801561081257600080fd5b505af1158015610826573d6000803e3d6000fd5b505050506040513d604081101561083c57600080fd5b50602090810151600154604080517f7a2a0456000000000000000000000000000000000000000000000000000000008152600160a060020a038981166004830152602482018590529151939650911692637a2a0456928992604480820193929182900301818588803b1580156108b157600080fd5b505af11580156108c5573d6000803e3d6000fd5b50505050506040513d60208110156108dc57600080fd5b5051604080517fa9059cbb000000000000000000000000000000000000000000000000000000008152600160a060020a0386811660048301526024820184905291519293509086169163a9059cbb916044808201926020929091908290030181600087803b15801561094d57600080fd5b505af1158015610961573d6000803e3d6000fd5b505050506040513d602081101561097757600080fd5b5051151561098457600080fd5b5050505050565b600154604080517f809a9e55000000000000000000000000000000000000000000000000000000008152600160a060020a0387811660048301528581166024830152604482018790528251600094859492169263809a9e5592606480830193919282900301818787803b158015610a0157600080fd5b505af1158015610a15573d6000803e3d6000fd5b505050506040513d6040811015610a2b57600080fd5b506020908101516001546040805160e060020a63095ea7b3028152600160a060020a0392831660048201526000602482018190529151939650918a169363095ea7b393604480850194929391928390030190829087803b158015610a8e57600080fd5b505af1158015610aa2573d6000803e3d6000fd5b505050506040513d6020811015610ab857600080fd5b50511515610ac557600080fd5b6001546040805160e060020a63095ea7b3028152600160a060020a0392831660048201526024810188905290519188169163095ea7b3916044808201926020929091908290030181600087803b158015610b1e57600080fd5b505af1158015610b32573d6000803e3d6000fd5b505050506040513d6020811015610b4857600080fd5b5050600154604080517f7409e2eb000000000000000000000000000000000000000000000000000000008152600160a060020a0389811660048301526024820189905287811660448301526064820186905291519190921691637409e2eb9160848083019260209291908290030181600087803b158015610bc857600080fd5b505af1158015610bdc573d6000803e3d6000fd5b505050506040513d6020811015610bf257600080fd5b5051604080517fa9059cbb000000000000000000000000000000000000000000000000000000008152600160a060020a0386811660048301526024820184905291519293509086169163a9059cbb916044808201926020929091908290030181600087803b158015610c6357600080fd5b505af1158015610c77573d6000803e3d6000fd5b505050506040513d6020811015610c8d57600080fd5b5051151561044f57600080fd5b604080516060810182526000808252602082018190529181019190915290565b600082820183811015610ccc57600080fd5b93925050505600a165627a7a72305820d7e2d1a5285002f4bf5066f76d718ad0fe08e5bf5d1de50ba9c636cf8e839dea0029",
  "source": "pragma solidity 0.4.24;\n\n\ninterface ERC20 {\n    function totalSupply() public view returns (uint supply);\n    function balanceOf(address _owner) public view returns (uint balance);\n    function transfer(address _to, uint _value) public returns (bool success);\n    function transferFrom(address _from, address _to, uint _value) public returns (bool success);\n    function approve(address _spender, uint _value) public returns (bool success);\n    function allowance(address _owner, address _spender) public view returns (uint remaining);\n    function decimals() public view returns(uint digits);\n    event Approval(address indexed _owner, address indexed _spender, uint _value);\n}\n\n/// @title Kyber Network interface\ninterface KyberNetworkProxyInterface {\n    function maxGasPrice() public view returns(uint);\n    function getUserCapInWei(address user) public view returns(uint);\n    function getUserCapInTokenWei(address user, ERC20 token) public view returns(uint);\n    function enabled() public view returns(bool);\n    function info(bytes32 id) public view returns(uint);\n\n    function getExpectedRate(ERC20 src, ERC20 dest, uint srcQty) public view\n        returns (uint expectedRate, uint slippageRate);\n\n    function tradeWithHint(ERC20 src, uint srcAmount, ERC20 dest, address destAddress, uint maxDestAmount,\n        uint minConversionRate, address walletId, bytes hint) public payable returns(uint);\n}\n\n/// @title simple interface for Kyber Network\ninterface SimpleNetworkInterface {\n    function swapTokenToToken(ERC20 src, uint srcAmount, ERC20 dest, uint minConversionRate) public returns(uint);\n    function swapEtherToToken(ERC20 token, uint minConversionRate) public payable returns(uint);\n    function swapTokenToEther(ERC20 token, uint srcAmount, uint minConversionRate) public returns(uint);\n}\n\n/**\n * @title SafeMath\n * @dev Math operations with safety checks that revert on error\n */\nlibrary SafeMath {\n\n  /**\n  * @dev Multiplies two numbers, reverts on overflow.\n  */\n  function mul(uint256 a, uint256 b) internal pure returns (uint256) {\n    // Gas optimization: this is cheaper than requiring 'a' not being zero, but the\n    // benefit is lost if 'b' is also tested.\n    // See: https://github.com/OpenZeppelin/openzeppelin-solidity/pull/522\n    if (a == 0) {\n      return 0;\n    }\n\n    uint256 c = a * b;\n    require(c / a == b);\n\n    return c;\n  }\n\n  /**\n  * @dev Integer division of two numbers truncating the quotient, reverts on division by zero.\n  */\n  function div(uint256 a, uint256 b) internal pure returns (uint256) {\n    require(b > 0); // Solidity only automatically asserts when dividing by 0\n    uint256 c = a / b;\n    // assert(a == b * c + a % b); // There is no case in which this doesn't hold\n\n    return c;\n  }\n\n  /**\n  * @dev Subtracts two numbers, reverts on overflow (i.e. if subtrahend is greater than minuend).\n  */\n  function sub(uint256 a, uint256 b) internal pure returns (uint256) {\n    require(b <= a);\n    uint256 c = a - b;\n\n    return c;\n  }\n\n  /**\n  * @dev Adds two numbers, reverts on overflow.\n  */\n  function add(uint256 a, uint256 b) internal pure returns (uint256) {\n    uint256 c = a + b;\n    require(c >= a);\n\n    return c;\n  }\n\n  /**\n  * @dev Divides two numbers and returns the remainder (unsigned integer modulo),\n  * reverts when dividing by zero.\n  */\n  function mod(uint256 a, uint256 b) internal pure returns (uint256) {\n    require(b != 0);\n    return a % b;\n  }\n}\n\n\n// Splits incoming ETH payments, and pays out in whatever token or ETH the receiver wants\ncontract SplitterConverter {\n    using SafeMath for uint;\n\n    // copied from kyber contract\n    ERC20 constant internal ETH_TOKEN_ADDRESS = ERC20(0x00eeeeeeeeeeeeeeeeeeeeeeeeeeeeeeeeeeeeeeee);\n\n    event FundsReceived(uint256 amount);\n    event FundsSent(uint receiverIndex, address receiverAddress, uint256 amount);\n\n    event OrcalizeQueried(bytes32 id, string url);\n    event OrcalizeResult(bytes32 id, string result);\n\n    struct Receiver {\n        address outAddress;\n        uint8 share;\n        ERC20 outCurrency;\n    }\n\n    Receiver[] receivers;\n\n    KyberNetworkProxyInterface kyberNetworkProxy =  KyberNetworkProxyInterface(0x818E6FECD516Ecc3849DAf6845e3EC868087B755);\n\n    ERC20 daiToken = ERC20(0xaD6D458402F60fD3Bd25163575031ACDce07538D);\n\n\n    constructor(address[] addresses, uint8[] shares, ERC20[] outCurrencies) {\n        require(receivers.length == 0, \"Contract can only be set up once\");\n        require(addresses.length == shares.length && shares.length == outCurrencies.length, \"Bad input params\");\n        uint shareSum = 0;\n        for(uint i = 0; i < addresses.length; i++){\n            receivers.push(Receiver(addresses[i], shares[i], outCurrencies[i]));\n            shareSum = shareSum.add(shares[i]);\n        }\n        require(shareSum == 100, \"The sum of user shares should be 100\");\n    }\n\n    function () payable public {\n        emit FundsReceived(msg.value);\n    }\n\n    function getReceiversLength() public view returns (uint) {\n        return receivers.length;\n    }\n\n    function getReceiver(uint idx) public view returns (address outAddress, uint8 share, address outCurrency) {\n        Receiver memory receiver = receivers[idx];\n        return (\n            receiver.outAddress,\n            receiver.share,\n            receiver.outCurrency\n        );\n    }\n\n    function withdraw() public {\n        uint ethBalance = address(this).balance;\n        uint daiBalance = daiToken.balanceOf(address(this));\n        if (ethBalance == 0 && daiBalance == 0) return;\n        for(uint i = 0; i < receivers.length; i++){\n            Receiver memory receiver = receivers[i];\n            uint ethReceiverShare = ethBalance / 100 * receiver.share;\n            uint daiReceiverShare = daiBalance / 100 * receiver.share;\n            emit FundsSent(i, receiver.outAddress, ethReceiverShare);\n            if (receiver.outCurrency == ETH_TOKEN_ADDRESS){\n                // user wants ETH\n                if (ethReceiverShare != 0) {\n                    receiver.outAddress.transfer(ethReceiverShare);\n                }\n                if (daiReceiverShare != 0){\n                    // convert dai to eth\n                    swapTokenToEther(daiToken, daiReceiverShare, receiver.outAddress);\n                }\n            } else if (receiver.outCurrency == daiToken){\n                // user wants dai\n                if (ethReceiverShare != 0) {\n                    // convert eth to dai\n                    swapEtherToToken(ethReceiverShare, receiver.outCurrency, receiver.outAddress);\n                }\n                if (daiReceiverShare != 0){\n                    // send dai directly\n                    daiToken.transfer(receiver.outAddress, daiReceiverShare);\n                }\n\n            } else {\n                // user wants something besides eth or dai\n                if (ethReceiverShare != 0) {\n                    // convert eth to whatever token they want\n                    swapEtherToToken(ethReceiverShare, receiver.outCurrency, receiver.outAddress);\n                }\n                if (daiReceiverShare != 0) {\n                    // convert dai to whatever token they want\n                    swapTokenToToken(daiToken, daiReceiverShare, receiver.outCurrency, receiver.outAddress);\n                }\n            }\n        }\n    }\n\n    //@dev assumed to be receiving ether wei\n    //@param token destination token contract address\n    //@param destAddress address to send swapped tokens to\n    function swapEtherToToken (uint256 amount, ERC20 token, address destAddress) internal {\n        uint minRate;\n        (, minRate) = kyberNetworkProxy.getExpectedRate(ETH_TOKEN_ADDRESS, token, amount);\n\n        //will send back tokens to this contract's address\n        uint destAmount = SimpleNetworkInterface(kyberNetworkProxy).swapEtherToToken.value(amount)(token, minRate);\n\n        //send received tokens to destination address\n        require(token.transfer(destAddress, destAmount));\n    }\n\n    function swapTokenToToken (ERC20 srcToken, uint srcQty, ERC20 destToken, address destAddress) internal {\n        uint minRate;\n\n        //getExpectedRate returns expected rate and slippage rate\n        //we use the slippage rate as the minRate\n        (, minRate) = kyberNetworkProxy.getExpectedRate(srcToken, destToken, srcQty);\n\n        // Mitigate ERC20 Approve front-running attack, by initially setting\n        // allowance to 0\n        require(srcToken.approve(kyberNetworkProxy, 0));\n\n        //approve tokens so network can take them during the swap\n        srcToken.approve(address(kyberNetworkProxy), srcQty);\n        uint destAmount = SimpleNetworkInterface(kyberNetworkProxy).swapTokenToToken(srcToken, srcQty, destToken, minRate);\n\n        //send received tokens to destination address\n        require(destToken.transfer(destAddress, destAmount));\n    }\n\n    function swapTokenToEther (ERC20 srcToken, uint tokenQty, address destAddress) internal {\n\n        uint minRate;\n        (, minRate) = kyberNetworkProxy.getExpectedRate(srcToken, ETH_TOKEN_ADDRESS, tokenQty);\n\n        // Mitigate ERC20 Approve front-running attack, by initially setting\n        // allowance to 0\n        require(srcToken.approve(kyberNetworkProxy, 0));\n\n        //approve tokens so network can take them during the swap\n        srcToken.approve(address(kyberNetworkProxy), tokenQty);\n        uint destAmount = SimpleNetworkInterface(kyberNetworkProxy).swapTokenToEther(srcToken, tokenQty, minRate);\n\n        //send received ethers to destination address\n        destAddress.transfer(destAmount);\n    }\n}\n",
  "sourcePath": "/Users/chris/Documents/WorkStuff/Deconet/EthSanFranciscoHackathon2018/contracts/SplitterConverter.sol",
  "compiler": {
    "name": "solc",
    "version": "0.4.24+commit.e67f0147.Emscripten.clang"
  },
  "schemaVersion": "2.0.1",
  "updatedAt": "2018-10-07T09:08:28.325Z"
}