{
  "contractName": "SplitterConverter",
  "abi": [
    {
      "payable": true,
      "stateMutability": "payable",
      "type": "fallback"
    },
    {
      "anonymous": false,
      "inputs": [
        {
          "indexed": false,
          "name": "amount",
          "type": "uint256"
        }
      ],
      "name": "FundsReceived",
      "type": "event"
    },
    {
      "anonymous": false,
      "inputs": [
        {
          "indexed": false,
          "name": "receiverIndex",
          "type": "uint256"
        },
        {
          "indexed": false,
          "name": "receiverAddress",
          "type": "address"
        },
        {
          "indexed": false,
          "name": "amount",
          "type": "uint256"
        }
      ],
      "name": "FundsSent",
      "type": "event"
    },
    {
      "anonymous": false,
      "inputs": [
        {
          "indexed": false,
          "name": "id",
          "type": "bytes32"
        },
        {
          "indexed": false,
          "name": "url",
          "type": "string"
        }
      ],
      "name": "OrcalizeQueried",
      "type": "event"
    },
    {
      "anonymous": false,
      "inputs": [
        {
          "indexed": false,
          "name": "id",
          "type": "bytes32"
        },
        {
          "indexed": false,
          "name": "result",
          "type": "string"
        }
      ],
      "name": "OrcalizeResult",
      "type": "event"
    },
    {
      "constant": false,
      "inputs": [
        {
          "name": "addresses",
          "type": "address[]"
        },
        {
          "name": "shares",
          "type": "uint8[]"
        },
        {
          "name": "outCurrencies",
          "type": "address[]"
        }
      ],
      "name": "setUp",
      "outputs": [],
      "payable": false,
      "stateMutability": "nonpayable",
      "type": "function"
    },
    {
      "constant": false,
      "inputs": [],
      "name": "withdraw",
      "outputs": [],
      "payable": false,
      "stateMutability": "nonpayable",
      "type": "function"
    }
  ],
  "bytecode": "0x608060405260018054600160a060020a031990811673818e6fecd516ecc3849daf6845e3ec868087b755179091556002805490911673ad6d458402f60fd3bd25163575031acdce07538d17905534801561005857600080fd5b50610f81806100686000396000f30060806040526004361061004b5763ffffffff7c01000000000000000000000000000000000000000000000000000000006000350416633ccfd60b8114610080578063f3a5b73714610097575b6040805134815290517fbcdc7071c1beb6dcf2744621e0b29a2f2432ee20812d9ca5e3d5e8f9308d93a39181900360200190a1005b34801561008c57600080fd5b5061009561015e565b005b3480156100a357600080fd5b506040805160206004803580820135838102808601850190965280855261009595369593946024949385019291829185019084908082843750506040805187358901803560208181028481018201909552818452989b9a998901989297509082019550935083925085019084908082843750506040805187358901803560208181028481018201909552818452989b9a99890198929750908201955093508392508501908490808284375094975061048b9650505050505050565b600080600061016b610f35565b600254604080517f70a0823100000000000000000000000000000000000000000000000000000000815230600482018190529151913196506000928392600160a060020a03909116916370a0823191602480830192602092919082900301818787803b1580156101da57600080fd5b505af11580156101ee573d6000803e3d6000fd5b505050506040513d602081101561020457600080fd5b50519450600093505b60005484101561048357600080548590811061022557fe5b600091825260209182902060408051606080820183526002949094029092018054600160a060020a038082168086527401000000000000000000000000000000000000000090920460ff16858801819052600190930154168484015282518a8152958601526064808c04820286840181905292519398509196509089040293507f545fa8e09b7aa32e41eb2a2ece3cdfb1e14707a7bc79c78e749c79ea6b544aee9281900390910190a16040830151600160a060020a031673eeeeeeeeeeeeeeeeeeeeeeeeeeeeeeeeeeeeeeee141561035e578115610339578251604051600160a060020a039091169083156108fc029084906000818181858888f19350505050158015610337573d6000803e3d6000fd5b505b801561035957600254835161035991600160a060020a0316908390610767565b610478565b6002546040840151600160a060020a039081169116141561043a578115610392576103928284604001518560000151610a13565b8015610359576002548351604080517fa9059cbb000000000000000000000000000000000000000000000000000000008152600160a060020a039283166004820152602481018590529051919092169163a9059cbb9160448083019260209291908290030181600087803b15801561040957600080fd5b505af115801561041d573d6000803e3d6000fd5b505050506040513d602081101561043357600080fd5b5050610478565b8115610453576104538284604001518560000151610a13565b8015610478576002546040840151845161047892600160a060020a0316918491610c0d565b60019093019261020d565b505050505050565b600080548190156104fd57604080517f08c379a000000000000000000000000000000000000000000000000000000000815260206004820181905260248201527f436f6e74726163742063616e206f6e6c7920626520736574207570206f6e6365604482015290519081900360640190fd5b8351855114801561050f575082518451145b151561057c57604080517f08c379a000000000000000000000000000000000000000000000000000000000815260206004820152601060248201527f42616420696e70757420706172616d7300000000000000000000000000000000604482015290519081900360640190fd5b5060009050805b84518110156106cc57600060606040519081016040528087848151811015156105a857fe5b90602001906020020151600160a060020a0316815260200186848151811015156105ce57fe5b9060200190602002015160ff16815260200185848151811015156105ee57fe5b6020908102909101810151600160a060020a03908116909252835460018181018655600095865294829020845160029092020180549285015160ff16740100000000000000000000000000000000000000000274ff00000000000000000000000000000000000000001992851673ffffffffffffffffffffffffffffffffffffffff199485161792909216919091178155604090930151929093018054929091169190921617905583516106c2908590839081106106a857fe5b60209081029091010151839060ff1663ffffffff610f1c16565b9150600101610583565b6064821461076057604080517f08c379a0000000000000000000000000000000000000000000000000000000008152602060048201526024808201527f5468652073756d206f662075736572207368617265732073686f756c6420626560448201527f2031303000000000000000000000000000000000000000000000000000000000606482015290519081900360840190fd5b5050505050565b600154604080517f809a9e55000000000000000000000000000000000000000000000000000000008152600160a060020a03868116600483015273eeeeeeeeeeeeeeeeeeeeeeeeeeeeeeeeeeeeeeee6024830152604482018690528251600094859492169263809a9e5592606480830193919282900301818787803b1580156107ef57600080fd5b505af1158015610803573d6000803e3d6000fd5b505050506040513d604081101561081957600080fd5b506020908101516001546040805160e060020a63095ea7b3028152600160a060020a03928316600482015260006024820181905291519396509189169363095ea7b393604480850194929391928390030190829087803b15801561087c57600080fd5b505af1158015610890573d6000803e3d6000fd5b505050506040513d60208110156108a657600080fd5b505115156108b357600080fd5b6001546040805160e060020a63095ea7b3028152600160a060020a0392831660048201526024810187905290519187169163095ea7b3916044808201926020929091908290030181600087803b15801561090c57600080fd5b505af1158015610920573d6000803e3d6000fd5b505050506040513d602081101561093657600080fd5b5050600154604080517f3bba21dc000000000000000000000000000000000000000000000000000000008152600160a060020a038881166004830152602482018890526044820186905291519190921691633bba21dc9160648083019260209291908290030181600087803b1580156109ae57600080fd5b505af11580156109c2573d6000803e3d6000fd5b505050506040513d60208110156109d857600080fd5b5051604051909150600160a060020a0384169082156108fc029083906000818181858888f19350505050158015610483573d6000803e3d6000fd5b600154604080517f809a9e5500000000000000000000000000000000000000000000000000000000815273eeeeeeeeeeeeeeeeeeeeeeeeeeeeeeeeeeeeeeee6004820152600160a060020a038581166024830152604482018790528251600094859492169263809a9e5592606480830193919282900301818787803b158015610a9b57600080fd5b505af1158015610aaf573d6000803e3d6000fd5b505050506040513d6040811015610ac557600080fd5b50602090810151600154604080517f7a2a0456000000000000000000000000000000000000000000000000000000008152600160a060020a038981166004830152602482018590529151939650911692637a2a0456928992604480820193929182900301818588803b158015610b3a57600080fd5b505af1158015610b4e573d6000803e3d6000fd5b50505050506040513d6020811015610b6557600080fd5b5051604080517fa9059cbb000000000000000000000000000000000000000000000000000000008152600160a060020a0386811660048301526024820184905291519293509086169163a9059cbb916044808201926020929091908290030181600087803b158015610bd657600080fd5b505af1158015610bea573d6000803e3d6000fd5b505050506040513d6020811015610c0057600080fd5b5051151561076057600080fd5b600154604080517f809a9e55000000000000000000000000000000000000000000000000000000008152600160a060020a0387811660048301528581166024830152604482018790528251600094859492169263809a9e5592606480830193919282900301818787803b158015610c8357600080fd5b505af1158015610c97573d6000803e3d6000fd5b505050506040513d6040811015610cad57600080fd5b506020908101516001546040805160e060020a63095ea7b3028152600160a060020a0392831660048201526000602482018190529151939650918a169363095ea7b393604480850194929391928390030190829087803b158015610d1057600080fd5b505af1158015610d24573d6000803e3d6000fd5b505050506040513d6020811015610d3a57600080fd5b50511515610d4757600080fd5b6001546040805160e060020a63095ea7b3028152600160a060020a0392831660048201526024810188905290519188169163095ea7b3916044808201926020929091908290030181600087803b158015610da057600080fd5b505af1158015610db4573d6000803e3d6000fd5b505050506040513d6020811015610dca57600080fd5b5050600154604080517f7409e2eb000000000000000000000000000000000000000000000000000000008152600160a060020a0389811660048301526024820189905287811660448301526064820186905291519190921691637409e2eb9160848083019260209291908290030181600087803b158015610e4a57600080fd5b505af1158015610e5e573d6000803e3d6000fd5b505050506040513d6020811015610e7457600080fd5b5051604080517fa9059cbb000000000000000000000000000000000000000000000000000000008152600160a060020a0386811660048301526024820184905291519293509086169163a9059cbb916044808201926020929091908290030181600087803b158015610ee557600080fd5b505af1158015610ef9573d6000803e3d6000fd5b505050506040513d6020811015610f0f57600080fd5b5051151561048357600080fd5b600082820183811015610f2e57600080fd5b9392505050565b6040805160608101825260008082526020820181905291810191909152905600a165627a7a72305820cae0c4ba411cae52709b6c4622b3f9f03eb463413744ba6128608f557bae6dbf0029",
  "source": "pragma solidity 0.4.24;\n\n\ninterface ERC20 {\n    function totalSupply() public view returns (uint supply);\n    function balanceOf(address _owner) public view returns (uint balance);\n    function transfer(address _to, uint _value) public returns (bool success);\n    function transferFrom(address _from, address _to, uint _value) public returns (bool success);\n    function approve(address _spender, uint _value) public returns (bool success);\n    function allowance(address _owner, address _spender) public view returns (uint remaining);\n    function decimals() public view returns(uint digits);\n    event Approval(address indexed _owner, address indexed _spender, uint _value);\n}\n\n/// @title Kyber Network interface\ninterface KyberNetworkProxyInterface {\n    function maxGasPrice() public view returns(uint);\n    function getUserCapInWei(address user) public view returns(uint);\n    function getUserCapInTokenWei(address user, ERC20 token) public view returns(uint);\n    function enabled() public view returns(bool);\n    function info(bytes32 id) public view returns(uint);\n\n    function getExpectedRate(ERC20 src, ERC20 dest, uint srcQty) public view\n        returns (uint expectedRate, uint slippageRate);\n\n    function tradeWithHint(ERC20 src, uint srcAmount, ERC20 dest, address destAddress, uint maxDestAmount,\n        uint minConversionRate, address walletId, bytes hint) public payable returns(uint);\n}\n\n/// @title simple interface for Kyber Network\ninterface SimpleNetworkInterface {\n    function swapTokenToToken(ERC20 src, uint srcAmount, ERC20 dest, uint minConversionRate) public returns(uint);\n    function swapEtherToToken(ERC20 token, uint minConversionRate) public payable returns(uint);\n    function swapTokenToEther(ERC20 token, uint srcAmount, uint minConversionRate) public returns(uint);\n}\n\n/**\n * @title SafeMath\n * @dev Math operations with safety checks that revert on error\n */\nlibrary SafeMath {\n\n  /**\n  * @dev Multiplies two numbers, reverts on overflow.\n  */\n  function mul(uint256 a, uint256 b) internal pure returns (uint256) {\n    // Gas optimization: this is cheaper than requiring 'a' not being zero, but the\n    // benefit is lost if 'b' is also tested.\n    // See: https://github.com/OpenZeppelin/openzeppelin-solidity/pull/522\n    if (a == 0) {\n      return 0;\n    }\n\n    uint256 c = a * b;\n    require(c / a == b);\n\n    return c;\n  }\n\n  /**\n  * @dev Integer division of two numbers truncating the quotient, reverts on division by zero.\n  */\n  function div(uint256 a, uint256 b) internal pure returns (uint256) {\n    require(b > 0); // Solidity only automatically asserts when dividing by 0\n    uint256 c = a / b;\n    // assert(a == b * c + a % b); // There is no case in which this doesn't hold\n\n    return c;\n  }\n\n  /**\n  * @dev Subtracts two numbers, reverts on overflow (i.e. if subtrahend is greater than minuend).\n  */\n  function sub(uint256 a, uint256 b) internal pure returns (uint256) {\n    require(b <= a);\n    uint256 c = a - b;\n\n    return c;\n  }\n\n  /**\n  * @dev Adds two numbers, reverts on overflow.\n  */\n  function add(uint256 a, uint256 b) internal pure returns (uint256) {\n    uint256 c = a + b;\n    require(c >= a);\n\n    return c;\n  }\n\n  /**\n  * @dev Divides two numbers and returns the remainder (unsigned integer modulo),\n  * reverts when dividing by zero.\n  */\n  function mod(uint256 a, uint256 b) internal pure returns (uint256) {\n    require(b != 0);\n    return a % b;\n  }\n}\n\n\n// Splits incoming ETH payments, and pays out in whatever token or ETH the receiver wants\ncontract SplitterConverter {\n    using SafeMath for uint;\n\n    // copied from kyber contract\n    ERC20 constant internal ETH_TOKEN_ADDRESS = ERC20(0x00eeeeeeeeeeeeeeeeeeeeeeeeeeeeeeeeeeeeeeee);\n\n    event FundsReceived(uint256 amount);\n    event FundsSent(uint receiverIndex, address receiverAddress, uint256 amount);\n\n    event OrcalizeQueried(bytes32 id, string url);\n    event OrcalizeResult(bytes32 id, string result);\n\n    struct Receiver {\n        address outAddress;\n        uint8 share;\n        ERC20 outCurrency;\n    }\n\n    Receiver[] receivers;\n\n    KyberNetworkProxyInterface kyberNetworkProxy =  KyberNetworkProxyInterface(0x818E6FECD516Ecc3849DAf6845e3EC868087B755);\n\n    ERC20 daiToken = ERC20(0xaD6D458402F60fD3Bd25163575031ACDce07538D);\n\n    function () payable public {\n        emit FundsReceived(msg.value);\n    }\n\n    function setUp(address[] addresses, uint8[] shares, ERC20[] outCurrencies) public {\n        require(receivers.length == 0, \"Contract can only be set up once\");\n        require(addresses.length == shares.length && shares.length == outCurrencies.length, \"Bad input params\");\n        uint shareSum = 0;\n        for(uint i = 0; i < addresses.length; i++){\n            receivers.push(Receiver(addresses[i], shares[i], outCurrencies[i]));\n            shareSum = shareSum.add(shares[i]);\n        }\n        require(shareSum == 100, \"The sum of user shares should be 100\");\n    }\n\n    function withdraw() public {\n        uint ethBalance = address(this).balance;\n        uint daiBalance = daiToken.balanceOf(address(this));\n        for(uint i = 0; i < receivers.length; i++){\n            Receiver memory receiver = receivers[i];\n            uint ethReceiverShare = ethBalance / 100 * receiver.share;\n            uint daiReceiverShare = daiBalance / 100 * receiver.share;\n            emit FundsSent(i, receiver.outAddress, ethReceiverShare);\n            if (receiver.outCurrency == ETH_TOKEN_ADDRESS){\n                // user wants ETH\n                if (ethReceiverShare != 0) {\n                    receiver.outAddress.transfer(ethReceiverShare);\n                }\n                if (daiReceiverShare != 0){\n                    // convert dai to eth\n                    swapTokenToEther(daiToken, daiReceiverShare, receiver.outAddress);\n                }\n            } else if (receiver.outCurrency == daiToken){\n                // user wants dai\n                if (ethReceiverShare != 0) {\n                    // convert eth to dai\n                    swapEtherToToken(ethReceiverShare, receiver.outCurrency, receiver.outAddress);\n                }\n                if (daiReceiverShare != 0){\n                    // send dai directly\n                    daiToken.transfer(receiver.outAddress, daiReceiverShare);\n                }\n\n            } else {\n                // user wants something besides eth or dai\n                if (ethReceiverShare != 0) {\n                    // convert eth to whatever token they want\n                    swapEtherToToken(ethReceiverShare, receiver.outCurrency, receiver.outAddress);\n                }\n                if (daiReceiverShare != 0) {\n                    // convert dai to whatever token they want\n                    swapTokenToToken(daiToken, daiReceiverShare, receiver.outCurrency, receiver.outAddress);\n                }\n            }\n        }\n    }\n\n    //@dev assumed to be receiving ether wei\n    //@param token destination token contract address\n    //@param destAddress address to send swapped tokens to\n    function swapEtherToToken (uint256 amount, ERC20 token, address destAddress) internal {\n        uint minRate;\n        (, minRate) = kyberNetworkProxy.getExpectedRate(ETH_TOKEN_ADDRESS, token, amount);\n\n        //will send back tokens to this contract's address\n        uint destAmount = SimpleNetworkInterface(kyberNetworkProxy).swapEtherToToken.value(amount)(token, minRate);\n\n        //send received tokens to destination address\n        require(token.transfer(destAddress, destAmount));\n    }\n\n    function swapTokenToToken (ERC20 srcToken, uint srcQty, ERC20 destToken, address destAddress) internal {\n        uint minRate;\n\n        //getExpectedRate returns expected rate and slippage rate\n        //we use the slippage rate as the minRate\n        (, minRate) = kyberNetworkProxy.getExpectedRate(srcToken, destToken, srcQty);\n\n        // Mitigate ERC20 Approve front-running attack, by initially setting\n        // allowance to 0\n        require(srcToken.approve(kyberNetworkProxy, 0));\n\n        //approve tokens so network can take them during the swap\n        srcToken.approve(address(kyberNetworkProxy), srcQty);\n        uint destAmount = SimpleNetworkInterface(kyberNetworkProxy).swapTokenToToken(srcToken, srcQty, destToken, minRate);\n\n        //send received tokens to destination address\n        require(destToken.transfer(destAddress, destAmount));\n    }\n\n    function swapTokenToEther (ERC20 srcToken, uint tokenQty, address destAddress) internal {\n\n        uint minRate;\n        (, minRate) = kyberNetworkProxy.getExpectedRate(srcToken, ETH_TOKEN_ADDRESS, tokenQty);\n\n        // Mitigate ERC20 Approve front-running attack, by initially setting\n        // allowance to 0\n        require(srcToken.approve(kyberNetworkProxy, 0));\n\n        //approve tokens so network can take them during the swap\n        srcToken.approve(address(kyberNetworkProxy), tokenQty);\n        uint destAmount = SimpleNetworkInterface(kyberNetworkProxy).swapTokenToEther(srcToken, tokenQty, minRate);\n\n        //send received ethers to destination address\n        destAddress.transfer(destAmount);\n    }\n}\n",
  "sourcePath": "/Users/chris/Documents/WorkStuff/Deconet/EthSanFranciscoHackathon2018/contracts/SplitterConverter.sol",
  "compiler": {
    "name": "solc",
    "version": "0.4.24+commit.e67f0147.Emscripten.clang"
  },
  "schemaVersion": "2.0.1",
  "updatedAt": "2018-10-07T07:10:05.825Z"
}