{
  "contractName": "SplitterConverterFactory",
  "abi": [
    {
      "constant": false,
      "inputs": [],
      "name": "renounceOwnership",
      "outputs": [],
      "payable": false,
      "stateMutability": "nonpayable",
      "type": "function"
    },
    {
      "constant": true,
      "inputs": [],
      "name": "owner",
      "outputs": [
        {
          "name": "",
          "type": "address"
        }
      ],
      "payable": false,
      "stateMutability": "view",
      "type": "function"
    },
    {
      "constant": true,
      "inputs": [],
      "name": "libraryAddress",
      "outputs": [
        {
          "name": "",
          "type": "address"
        }
      ],
      "payable": false,
      "stateMutability": "view",
      "type": "function"
    },
    {
      "constant": false,
      "inputs": [
        {
          "name": "_newOwner",
          "type": "address"
        }
      ],
      "name": "transferOwnership",
      "outputs": [],
      "payable": false,
      "stateMutability": "nonpayable",
      "type": "function"
    },
    {
      "inputs": [
        {
          "name": "_libraryAddress",
          "type": "address"
        }
      ],
      "payable": false,
      "stateMutability": "nonpayable",
      "type": "constructor"
    },
    {
      "anonymous": false,
      "inputs": [
        {
          "indexed": false,
          "name": "newCloneAddress",
          "type": "address"
        }
      ],
      "name": "SplitterConverterCreated",
      "type": "event"
    },
    {
      "anonymous": false,
      "inputs": [
        {
          "indexed": true,
          "name": "target",
          "type": "address"
        },
        {
          "indexed": false,
          "name": "clone",
          "type": "address"
        }
      ],
      "name": "CloneCreated",
      "type": "event"
    },
    {
      "anonymous": false,
      "inputs": [
        {
          "indexed": true,
          "name": "previousOwner",
          "type": "address"
        }
      ],
      "name": "OwnershipRenounced",
      "type": "event"
    },
    {
      "anonymous": false,
      "inputs": [
        {
          "indexed": true,
          "name": "previousOwner",
          "type": "address"
        },
        {
          "indexed": true,
          "name": "newOwner",
          "type": "address"
        }
      ],
      "name": "OwnershipTransferred",
      "type": "event"
    },
    {
      "constant": false,
      "inputs": [
        {
          "name": "_libraryAddress",
          "type": "address"
        }
      ],
      "name": "setLibraryAddress",
      "outputs": [],
      "payable": false,
      "stateMutability": "nonpayable",
      "type": "function"
    },
    {
      "constant": false,
      "inputs": [
        {
          "name": "addresses",
          "type": "address[]"
        },
        {
          "name": "shares",
          "type": "uint8[]"
        },
        {
          "name": "outCurrencies",
          "type": "address[]"
        }
      ],
      "name": "createSplitterConverter",
      "outputs": [
        {
          "name": "",
          "type": "address"
        }
      ],
      "payable": false,
      "stateMutability": "nonpayable",
      "type": "function"
    }
  ],
  "bytecode": "0x608060405234801561001057600080fd5b506040516020806105c7833981016040525160008054600160a060020a0319908116331790915560018054600160a060020a03909316929091169190911790556105688061005f6000396000f3006080604052600436106100775763ffffffff7c01000000000000000000000000000000000000000000000000000000006000350416634863ba17811461007c578063715018a61461009f5780638da5cb5b146100b4578063acb2e44a146100e5578063b816f5131461011d578063f2fde38b14610132575b600080fd5b34801561008857600080fd5b5061009d600160a060020a0360043516610153565b005b3480156100ab57600080fd5b5061009d6101c9565b3480156100c057600080fd5b506100c9610235565b60408051600160a060020a039092168252519081900360200190f35b3480156100f157600080fd5b506100c96024600480358281019290820135918135808301929082013591604435918201910135610244565b34801561012957600080fd5b506100c9610385565b34801561013e57600080fd5b5061009d600160a060020a0360043516610394565b600054600160a060020a0316331461016a57600080fd5b600154600160a060020a038281169116141561018557600080fd5b600160a060020a038116151561019a57600080fd5b6001805473ffffffffffffffffffffffffffffffffffffffff1916600160a060020a0392909216919091179055565b600054600160a060020a031633146101e057600080fd5b60008054604051600160a060020a03909116917ff8df31144d9c2f0f6b59d69b8b98abd5459d07f2742c4df920b25aae33c6482091a26000805473ffffffffffffffffffffffffffffffffffffffff19169055565b600054600160a060020a031681565b600154600090819061025e90600160a060020a03166103b7565b905080600160a060020a031663f3a5b7378989898989896040518763ffffffff167c01000000000000000000000000000000000000000000000000000000000281526004018080602001806020018060200184810384528a8a828181526020019250602002808284379091018581038452888152602090810191508990890280828437909101858103835286815260209081019150879087028082843782019150509950505050505050505050600060405180830381600087803b15801561032557600080fd5b505af1158015610339573d6000803e3d6000fd5b505060408051600160a060020a038516815290517f510919c0beeada1a30a743e8ddd1fa968742f11144fb4abb5eb0bb2a6b18e5a89350908190036020019150a1979650505050505050565b600154600160a060020a031681565b600054600160a060020a031633146103ab57600080fd5b6103b4816104bf565b50565b60408051606081018252603781527f3d602d80600a3d3981f3363d3d373d3d3d363d73bebebebebebebebebebebebe60208201527fbebebebebebebebe5af43d82803e903d91602b57fd5bf3000000000000000000918101919091526000906c010000000000000000000000008302825b60148110156104a95781816014811061043d57fe5b1a7f010000000000000000000000000000000000000000000000000000000000000002838260140181518110151561047157fe5b9060200101907effffffffffffffffffffffffffffffffffffffffffffffffffffffffffffff1916908160001a905350600101610428565b82516020840181816000f0979650505050505050565b600160a060020a03811615156104d457600080fd5b60008054604051600160a060020a03808516939216917f8be0079c531659141344cd1fd0a4f28419497f9722a3daafe3b4186f6b6457e091a36000805473ffffffffffffffffffffffffffffffffffffffff1916600160a060020a03929092169190911790555600a165627a7a72305820579ab37ba251f3df6746e3c03d5b4f0f7b5aba1abd4f877d2d022f1a0e2b56790029",
  "source": "pragma solidity 0.4.24;\n\nimport \"./SplitterConverter.sol\";\nimport \"openzeppelin-solidity/contracts/ownership/Ownable.sol\";\nimport \"@optionality.io/clone-factory/contracts/CloneFactory.sol\";\n\n\ncontract SplitterConverterFactory is Ownable, CloneFactory {\n\n    address public libraryAddress;\n\n    event SplitterConverterCreated(address newCloneAddress);\n\n    constructor(address _libraryAddress) public {\n        libraryAddress = _libraryAddress;\n    }\n\n    function setLibraryAddress(address _libraryAddress) external onlyOwner {\n        require(libraryAddress != _libraryAddress);\n        require(_libraryAddress != address(0x0));\n\n        libraryAddress = _libraryAddress;\n    }\n\n    function createSplitterConverter(\n        address[] addresses,\n        uint8[] shares,\n        ERC20[] outCurrencies\n    )\n        external\n        returns(address)\n    {\n        address clone = createClone(libraryAddress);\n        SplitterConverter(clone).setUp(addresses, shares, outCurrencies);\n        emit SplitterConverterCreated(clone);\n        return clone;\n    }\n}",
  "sourcePath": "/Users/chris/Documents/WorkStuff/Deconet/EthSanFranciscoHackathon2018/contracts/SplitterConverterFactory.sol",
  "compiler": {
    "name": "solc",
    "version": "0.4.24+commit.e67f0147.Emscripten.clang"
  },
  "schemaVersion": "2.0.1",
  "updatedAt": "2018-10-07T07:10:05.810Z"
}